{
  "contractName": "Authoriser",
  "abi": [
    {
      "inputs": [
        {
          "internalType": "uint64",
          "name": "_timelockPeriod",
          "type": "uint64"
        }
      ],
      "stateMutability": "nonpayable",
      "type": "constructor"
    },
    {
      "inputs": [
        {
          "internalType": "uint8",
          "name": "",
          "type": "uint8"
        },
        {
          "internalType": "address",
          "name": "",
          "type": "address"
        }
      ],
      "name": "authorisations",
      "outputs": [
        {
          "internalType": "bytes32",
          "name": "",
          "type": "bytes32"
        }
      ],
      "stateMutability": "view",
      "type": "function"
    },
    {
      "inputs": [
        {
          "internalType": "address",
          "name": "",
          "type": "address"
        }
      ],
      "name": "enabledRegistryIds",
      "outputs": [
        {
          "internalType": "bytes32",
          "name": "",
          "type": "bytes32"
        }
      ],
      "stateMutability": "view",
      "type": "function"
    },
    {
      "inputs": [
        {
          "internalType": "uint8",
          "name": "",
          "type": "uint8"
        }
      ],
      "name": "registryOwners",
      "outputs": [
        {
          "internalType": "address",
          "name": "",
          "type": "address"
        }
      ],
      "stateMutability": "view",
      "type": "function"
    },
    {
      "inputs": [],
      "name": "timelockPeriod",
      "outputs": [
        {
          "internalType": "uint64",
          "name": "",
          "type": "uint64"
        }
      ],
      "stateMutability": "view",
      "type": "function"
    },
    {
      "inputs": [
        {
          "internalType": "address",
          "name": "_wallet",
          "type": "address"
        },
        {
          "internalType": "address",
          "name": "_spender",
          "type": "address"
        },
        {
          "internalType": "address",
          "name": "_to",
          "type": "address"
        },
        {
          "internalType": "bytes",
          "name": "_data",
          "type": "bytes"
        }
      ],
      "name": "isAuthorised",
      "outputs": [
        {
          "internalType": "bool",
          "name": "",
          "type": "bool"
        }
      ],
      "stateMutability": "view",
      "type": "function"
    },
    {
      "inputs": [
        {
          "internalType": "address",
          "name": "_wallet",
          "type": "address"
        },
        {
          "internalType": "address[]",
          "name": "_spenders",
          "type": "address[]"
        },
        {
          "internalType": "address[]",
          "name": "_to",
          "type": "address[]"
        },
        {
          "internalType": "bytes[]",
          "name": "_data",
          "type": "bytes[]"
        }
      ],
      "name": "areAuthorised",
      "outputs": [
        {
          "internalType": "bool",
          "name": "",
          "type": "bool"
        }
      ],
      "stateMutability": "view",
      "type": "function"
    },
    {
      "inputs": [
        {
          "internalType": "uint8",
          "name": "_registryId",
          "type": "uint8"
        },
        {
          "internalType": "address",
          "name": "_dapp",
          "type": "address"
        },
        {
          "internalType": "address",
          "name": "_filter",
          "type": "address"
        }
      ],
      "name": "addDapp",
      "outputs": [],
      "stateMutability": "nonpayable",
      "type": "function"
    }
  ],
  "bytecode": "0x608060405234801561001057600080fd5b50604051610f6b380380610f6b833981810160405281019061003291906100fb565b80600260006101000a81548167ffffffffffffffff021916908367ffffffffffffffff16021790555033600360008060ff16815260200190815260200160002060006101000a81548173ffffffffffffffffffffffffffffffffffffffff021916908373ffffffffffffffffffffffffffffffffffffffff16021790555050610128565b600080fd5b600067ffffffffffffffff82169050919050565b6100d8816100bb565b81146100e357600080fd5b50565b6000815190506100f5816100cf565b92915050565b600060208284031215610111576101106100b6565b5b600061011f848285016100e6565b91505092915050565b610e34806101376000396000f3fe608060405234801561001057600080fd5b506004361061007d5760003560e01c80635cfdc4d01161005b5780635cfdc4d0146101005780636dd2ee2d14610130578063770982901461016057806394518819146101905761007d565b80632a42be54146100825780632ecaf675146100b257806332df0560146100d0575b600080fd5b61009c60048036038101906100979190610765565b6101ac565b6040516100a99190610849565b60405180910390f35b6100ba61026f565b6040516100c79190610887565b60405180910390f35b6100ea60048036038101906100e591906108db565b610289565b6040516100f79190610934565b60405180910390f35b61011a600480360381019061011591906109a5565b6102ae565b6040516101279190610849565b60405180910390f35b61014a60048036038101906101459190610a2d565b6104ac565b6040516101579190610a69565b60405180910390f35b61017a60048036038101906101759190610a84565b6104df565b6040516101879190610934565b60405180910390f35b6101aa60048036038101906101a59190610ab1565b6104f7565b005b600080600090505b8787905081101561025e5761023d898989848181106101d6576101d5610b04565b5b90506020020160208101906101eb9190610a84565b8888858181106101fe576101fd610b04565b5b90506020020160208101906102139190610a84565b87878681811061022657610225610b04565b5b90506020028101906102389190610b42565b6102ae565b61024b576000915050610264565b808061025690610bde565b9150506101b4565b50600190505b979650505050505050565b600260009054906101000a900467ffffffffffffffff1681565b6001602052816000526040600020602052806000526040600020600091509150505481565b6000806000808873ffffffffffffffffffffffffffffffffffffffff1673ffffffffffffffffffffffffffffffffffffffff1681526020019081526020016000205460001c905060005b600081148061030a575060008183901c115b1561049c5760008082111515600060018486901c161115151490508015610488576000600160008460ff1660ff16815260200190815260200160002060008a73ffffffffffffffffffffffffffffffffffffffff1673ffffffffffffffffffffffffffffffffffffffff1681526020019081526020016000205460001c9050600067ffffffffffffffff821690508060001080156103a85750428111155b15610485576000604083901c9050600073ffffffffffffffffffffffffffffffffffffffff168173ffffffffffffffffffffffffffffffffffffffff16148061046f57508073ffffffffffffffffffffffffffffffffffffffff1663e0274e1d8d8d8d8d8d6040518663ffffffff1660e01b815260040161042d959493929190610c84565b602060405180830381865afa15801561044a573d6000803e3d6000fd5b505050506040513d601f19601f8201168201806040525081019061046e9190610cfe565b5b1561048357600196505050505050506104a3565b505b50505b50808061049490610bde565b9150506102f8565b5060009150505b95945050505050565b60036020528060005260406000206000915054906101000a900473ffffffffffffffffffffffffffffffffffffffff1681565b60006020528060005260406000206000915090505481565b6000801b600160008560ff1660ff16815260200190815260200160002060008473ffffffffffffffffffffffffffffffffffffffff1673ffffffffffffffffffffffffffffffffffffffff1681526020019081526020016000205414610592576040517f08c379a000000000000000000000000000000000000000000000000000000000815260040161058990610d88565b60405180910390fd5b6000600260009054906101000a900467ffffffffffffffff1667ffffffffffffffff16426105c09190610da8565b90508060408373ffffffffffffffffffffffffffffffffffffffff16901b1760001b600160008660ff1660ff16815260200190815260200160002060008573ffffffffffffffffffffffffffffffffffffffff1673ffffffffffffffffffffffffffffffffffffffff1681526020019081526020016000208190555050505050565b600080fd5b600080fd5b600073ffffffffffffffffffffffffffffffffffffffff82169050919050565b60006106778261064c565b9050919050565b6106878161066c565b811461069257600080fd5b50565b6000813590506106a48161067e565b92915050565b600080fd5b600080fd5b600080fd5b60008083601f8401126106cf576106ce6106aa565b5b8235905067ffffffffffffffff8111156106ec576106eb6106af565b5b602083019150836020820283011115610708576107076106b4565b5b9250929050565b60008083601f840112610725576107246106aa565b5b8235905067ffffffffffffffff811115610742576107416106af565b5b60208301915083602082028301111561075e5761075d6106b4565b5b9250929050565b60008060008060008060006080888a03121561078457610783610642565b5b60006107928a828b01610695565b975050602088013567ffffffffffffffff8111156107b3576107b2610647565b5b6107bf8a828b016106b9565b9650965050604088013567ffffffffffffffff8111156107e2576107e1610647565b5b6107ee8a828b016106b9565b9450945050606088013567ffffffffffffffff81111561081157610810610647565b5b61081d8a828b0161070f565b925092505092959891949750929550565b60008115159050919050565b6108438161082e565b82525050565b600060208201905061085e600083018461083a565b92915050565b600067ffffffffffffffff82169050919050565b61088181610864565b82525050565b600060208201905061089c6000830184610878565b92915050565b600060ff82169050919050565b6108b8816108a2565b81146108c357600080fd5b50565b6000813590506108d5816108af565b92915050565b600080604083850312156108f2576108f1610642565b5b6000610900858286016108c6565b925050602061091185828601610695565b9150509250929050565b6000819050919050565b61092e8161091b565b82525050565b60006020820190506109496000830184610925565b92915050565b60008083601f840112610965576109646106aa565b5b8235905067ffffffffffffffff811115610982576109816106af565b5b60208301915083600182028301111561099e5761099d6106b4565b5b9250929050565b6000806000806000608086880312156109c1576109c0610642565b5b60006109cf88828901610695565b95505060206109e088828901610695565b94505060406109f188828901610695565b935050606086013567ffffffffffffffff811115610a1257610a11610647565b5b610a1e8882890161094f565b92509250509295509295909350565b600060208284031215610a4357610a42610642565b5b6000610a51848285016108c6565b91505092915050565b610a638161066c565b82525050565b6000602082019050610a7e6000830184610a5a565b92915050565b600060208284031215610a9a57610a99610642565b5b6000610aa884828501610695565b91505092915050565b600080600060608486031215610aca57610ac9610642565b5b6000610ad8868287016108c6565b9350506020610ae986828701610695565b9250506040610afa86828701610695565b9150509250925092565b7f4e487b7100000000000000000000000000000000000000000000000000000000600052603260045260246000fd5b600080fd5b600080fd5b600080fd5b60008083356001602003843603038112610b5f57610b5e610b33565b5b80840192508235915067ffffffffffffffff821115610b8157610b80610b38565b5b602083019250600182023603831315610b9d57610b9c610b3d565b5b509250929050565b7f4e487b7100000000000000000000000000000000000000000000000000000000600052601160045260246000fd5b6000819050919050565b6000610be982610bd4565b91507fffffffffffffffffffffffffffffffffffffffffffffffffffffffffffffffff8203610c1b57610c1a610ba5565b5b600182019050919050565b600082825260208201905092915050565b82818337600083830152505050565b6000601f19601f8301169050919050565b6000610c638385610c26565b9350610c70838584610c37565b610c7983610c46565b840190509392505050565b6000608082019050610c996000830188610a5a565b610ca66020830187610a5a565b610cb36040830186610a5a565b8181036060830152610cc6818486610c57565b90509695505050505050565b610cdb8161082e565b8114610ce657600080fd5b50565b600081519050610cf881610cd2565b92915050565b600060208284031215610d1457610d13610642565b5b6000610d2284828501610ce9565b91505092915050565b600082825260208201905092915050565b7f44523a206461707020616c726561647920616464656400000000000000000000600082015250565b6000610d72601683610d2b565b9150610d7d82610d3c565b602082019050919050565b60006020820190508181036000830152610da181610d65565b9050919050565b6000610db382610bd4565b9150610dbe83610bd4565b9250827fffffffffffffffffffffffffffffffffffffffffffffffffffffffffffffffff03821115610df357610df2610ba5565b5b82820190509291505056fea2646970667358221220b08fedbc348be5b185ca99b59e4ea8e162301703a95f9035af687b8f218f67f564736f6c634300080f0033",
  "immutableReferences": {},
  "source": "// SPDX-License-Identifier: MIT\r\npragma solidity ^0.8.3;\r\n\r\nimport \"./interface/IAuthoriser.sol\";\r\nimport \"./interface/IFilter.sol\";\r\n\r\ncontract Authoriser is IAuthoriser{\r\n\r\n    mapping(address => bytes32) public enabledRegistryIds;\r\n    mapping(uint8 => mapping(address => bytes32)) public authorisations;\r\n    uint64 public timelockPeriod;\r\n\r\n    mapping (uint8 => address) public registryOwners; // [registryId] => [owner]\r\n    constructor(uint64 _timelockPeriod) {\r\n        timelockPeriod = _timelockPeriod;\r\n        registryOwners[0] = msg.sender;\r\n    }\r\n\r\n    function isAuthorised(address _wallet, address _spender, address _to, bytes calldata _data) public view override returns (bool) {\r\n        uint registries = uint(enabledRegistryIds[_wallet]);\r\n        for(uint registryId = 0; registryId == 0 || (registries >> registryId) > 0; registryId++) {\r\n            bool isEnabled = (((registries >> registryId) & 1) > 0) /* \"is bit set for regId?\" */ == (registryId > 0) /* \"not Argent registry?\" */;\r\n            if(isEnabled) { // if registryId is enabled\r\n                uint auth = uint(authorisations[uint8(registryId)][_spender]); \r\n                uint validAfter = auth & 0xffffffffffffffff;\r\n                if (0 < validAfter && validAfter <= block.timestamp) { // if the current time is greater than the validity time\r\n                    address filter = address(uint160(auth >> 64));\r\n                    if(filter == address(0) || IFilter(filter).isValid(_wallet, _spender, _to, _data)) {\r\n                        return true;\r\n                    }\r\n                }\r\n            }\r\n        }\r\n        return false;\r\n    }\r\n\r\n    function areAuthorised(\r\n        address _wallet,\r\n        address[] calldata _spenders,\r\n        address[] calldata _to,\r\n        bytes[] calldata _data\r\n    )\r\n        external\r\n        view\r\n        override\r\n        returns (bool) \r\n    {\r\n        for(uint i = 0; i < _spenders.length; i++) {\r\n            if(!isAuthorised(_wallet, _spenders[i], _to[i], _data[i])) {\r\n                return false;\r\n            }\r\n        }\r\n        return true;\r\n    }\r\n\r\n    function addDapp(uint8 _registryId, address _dapp, address _filter) external {\r\n        require(authorisations[_registryId][_dapp] == bytes32(0), \"DR: dapp already added\");\r\n        uint validAfter = block.timestamp + timelockPeriod;\r\n        // Store the new authorisation as {filter:160}{validAfter:64}.\r\n        authorisations[_registryId][_dapp] = bytes32((uint(uint160(_filter)) << 64) | validAfter);\r\n    }\r\n}",
  "sourcePath": "D:\\ACY\\Base-mobile\\contracts\\Authoriser.sol",
  "compiler": {
    "name": "solc",
    "version": "0.8.15+commit.e14f2714.Emscripten.clang"
  },
  "schemaVersion": "3.4.10",
  "updatedAt": "2022-11-29T12:38:29.013Z",
  "devdoc": {
    "kind": "dev",
    "methods": {},
    "version": 1
  },
  "userdoc": {
    "kind": "user",
    "methods": {},
    "version": 1
  }
}